S01700006770696F5F746573745F62656E63682E73726563E0
S20500000013E7
S20500000100F9
S20500000200F8
S20500000300F7
S20500000413E3
S20500000500F5
S20500000600F4
S20500000700F3
S20500000813DF
S20500000900F1
S20500000A00F0
S20500000B00EF
S20500000C13DB
S20500000D00ED
S20500000E00EC
S20500000F00EB
S20500001013D7
S20500001100E9
S20500001200E8
S20500001300E7
S20500001413D3
S20500001500E5
S20500001600E4
S20500001700E3
S20500001813CF
S20500001900E1
S20500001A00E0
S20500001B00DF
S20500001C13CB
S20500001D00DD
S20500001E00DC
S20500001F00DB
S20500002013C7
S20500002100D9
S20500002200D8
S20500002300D7
S20500002413C3
S20500002500D5
S20500002600D4
S20500002700D3
S20500002813BF
S20500002900D1
S20500002A00D0
S20500002B00CF
S20500002C13BB
S20500002D00CD
S20500002E00CC
S20500002F00CB
S20500003013B7
S20500003100C9
S20500003200C8
S20500003300C7
S20500003413B3
S20500003500C5
S20500003600C4
S20500003700C3
S20500003813AF
S20500003900C1
S20500003A00C0
S20500003B00BF
S20500003C13AB
S20500003D00BD
S20500003E00BC
S20500003F00BB
S20500004013A7
S20500004100B9
S20500004200B8
S20500004300B7
S20500004413A3
S20500004500B5
S20500004600B4
S20500004700B3
S205000048139F
S20500004900B1
S20500004A00B0
S20500004B00AF
S20500004C139B
S20500004D00AD
S20500004E00AC
S20500004F00AB
S2050000501397
S20500005100A9
S20500005200A8
S20500005300A7
S2050000541393
S20500005500A5
S20500005600A4
S20500005700A3
S205000058138F
S20500005900A1
S20500005A00A0
S20500005B009F
S20500005C6F2F
S20500005D009D
S20500005EE0BC
S20500005F0A91
S2050000606F2B
S2050000610099
S205000062E0B8
S2050000630B8C
S2050000646F27
S2050000650095
S205000066E0B4
S2050000670C87
S2050000686F23
S2050000690091
S20500006AE0B0
S20500006B0D82
S20500006C6F1F
S20500006D008D
S20500006EE0AC
S20500006F0E7D
S2050000706F1B
S2050000710089
S2050000722068
S2050000731176
S2050000746F17
S2050000750085
S205000076A0E4
S2050000770F74
S2050000786F13
S2050000790081
S20500007A2060
S20500007B136C
S20500007C6F0F
S20500007D007D
S20500007EA0DC
S20500007F116A
S2050000806F0B
S2050000810079
S205000082C0B8
S2050000830077
S2050000846F07
S2050000850075
S205000086A0D4
S2050000871360
S2050000886F03
S2050000890071
S20500008AA0D0
S20500008B145B
S20500008C93DB
S20500008D006D
S20500008E006C
S20500008F006B
S2050000900664
S20500009181E8
S20500009286E2
S20500009381E6
S2050000940660
S20500009582E3
S20500009686DE
S20500009782E1
S205000098065C
S20500009983DE
S20500009A86DA
S20500009B83DC
S20500009C0658
S20500009D84D9
S20500009E86D6
S20500009F84D7
S2050000A00654
S2050000A185D4
S2050000A286D2
S2050000A385D2
S2050000A40650
S2050000A586CF
S2050000A686CE
S2050000A786CD
S2050000A8064C
S2050000A987CA
S2050000AA86CA
S2050000AB87C8
S2050000AC0648
S2050000AD88C5
S2050000AE86C6
S2050000AF88C3
S2050000B00644
S2050000B189C0
S2050000B286C2
S2050000B389BE
S2050000B40640
S2050000B58ABB
S2050000B686BE
S2050000B78AB9
S2050000B8063C
S2050000B98BB6
S2050000BA86BA
S2050000BB8BB4
S2050000BC0638
S2050000BD8CB1
S2050000BE86B6
S2050000BF8CAF
S2050000C00634
S2050000C18DAC
S2050000C286B2
S2050000C38DAA
S2050000C40630
S2050000C58EA7
S2050000C686AE
S2050000C78EA5
S2050000C8062C
S2050000C98FA2
S2050000CA86AA
S2050000CB8FA0
S2050000CC1717
S2050000CD012C
S2050000CE1913
S2050000CF002B
S2050000D01317
S2050000D10128
S2050000D241E7
S2050000D3F334
S2050000D4170F
S2050000D50D18
S2050000D61014
S2050000D70023
S2050000D8130F
S2050000D90D14
S2050000DA0D13
S2050000DBF52A
S2050000DC9787
S2050000DD0D10
S2050000DE100C
S2050000DF001B
S2050000E09387
S2050000E18D8C
S2050000E28D8B
S2050000E3F423
S2050000E463B3
S2050000E557BE
S2050000E6BD57
S2050000E70112
S2050000E823EF
S2050000E920F1
S2050000EA0D03
S2050000EB000F
S2050000EC11FD
S2050000ED0D00
S2050000EEE329
S2050000EFDD2E
S2050000F0AD5D
S2050000F1FF0A
S2050000F213F5
S2050000F30502
S2050000F40006
S2050000F50005
S2050000F69371
S2050000F705FE
S2050000F80002
S2050000F90001
S2050000FAEF11
S2050000FB00FF
S2050000FC807E
S2050000FD27D6
S2050000FE2AD2
S2050000FF8477
S205000100EF0A
S20500010100F8
S20500010200F7
S20500010326D0
S20500010422D3
S205000105856F
S205000106EF04
S20500010700F2
S205000108A051
S20500010926CA
S20500010A1DD2
S20500010B717D
S20500010C8667
S20500010DCE1E
S20500010EEFFC
S20500010F00EA
S2050001108069
S2050001110DDB
S2050001129750
S20500011300E6
S20500011400E5
S20500011500E4
S2050001169350
S2050001178062
S205000118E001
S20500011911CF
S20500011A6F70
S20500011B00DE
S20500011CE0FD
S20500011D1EBE
S20500011E1DBE
S20500011F7169
S2050001208653
S205000121CE0A
S205000122EFE8
S20500012300D6
S2050001244095
S2050001250CC8
S205000126973C
S20500012700D2
S20500012800D1
S20500012900D0
S20500012A933C
S20500012B804E
S20500012CA02D
S20500012D10BC
S20500012E6F5C
S20500012F00CA
S205000130C009
S2050001311DAB
S2050001321DAA
S2050001337155
S205000134863F
S205000135CEF6
S205000136EFD4
S20500013700C2
S20500013800C1
S2050001390BB5
S20500013A9728
S20500013B00BE
S20500013C00BD
S20500013D00BC
S20500013E9328
S20500013F803A
S2050001406059
S2050001410FA9
S2050001426F48
S20500014300B6
S205000144A015
S2050001451C98
S2050001461D96
S2050001477141
S205000148862B
S205000149CEE2
S20500014AEFC0
S20500014B00AE
S20500014CC0ED
S20500014D09A3
S20500014E9714
S20500014F00AA
S20500015000A9
S20500015100A8
S2050001529314
S2050001538026
S2050001542085
S2050001550E96
S2050001566F34
S20500015700A2
S2050001588021
S2050001591B85
S20500015A1D82
S20500015B712D
S20500015C8617
S20500015DCECE
S20500015EEFAC
S20500015F009A
S2050001608019
S2050001610890
S2050001629700
S2050001630096
S2050001640095
S2050001650094
S2050001669300
S2050001678012
S205000168E0B1
S2050001690C84
S20500016A6F20
S20500016B008E
S20500016C602D
S20500016D1A72
S20500016E1D6E
S20500016F7119
S2050001708603
S205000171CEBA
S205000172EF98
S2050001730086
S2050001744045
S205000175077D
S20500017697EC
S2050001770082
S2050001780081
S2050001790080
S20500017A93EC
S20500017B80FE
S20500017CA0DD
S20500017D0B71
S20500017E6F0C
S20500017F007A
S2050001806019
S205000181195F
S2050001821D5A
S2050001837105
S20500018486EF
S205000185CEA6
S205000186EF84
S2050001870072
S2050001880071
S205000189066A
S20500018A97D8
S20500018B006E
S20500018C006D
S20500018D006C
S20500018E93D8
S20500018F80EA
S2050001906009
S2050001910A5E
S2050001926FF8
S2050001930066
S2050001940065
S205000195184C
S2050001961D46
S20500019771F1
S20500019886DB
S205000199CE92
S20500019AEF70
S20500019B005E
S20500019CC09D
S20500019D0458
S20500019E97C4
S20500019F005A
S2050001A00059
S2050001A10058
S2050001A293C4
S2050001A380D6
S2050001A42035
S2050001A5094B
S2050001A66FE4
S2050001A70052
S2050001A82031
S2050001A91739
S2050001AA1D32
S2050001AB71DD
S2050001AC86C7
S2050001ADCE7E
S2050001AEEF5C
S2050001AF004A
S2050001B080C9
S2050001B10345
S2050001B297B0
S2050001B30046
S2050001B40045
S2050001B50044
S2050001B693B0
S2050001B780C2
S2050001B8E061
S2050001B90739
S2050001BA6FD0
S2050001BB003E
S2050001BCC07D
S2050001BD1527
S2050001BE1D1E
S2050001BF71C9
S2050001C086B3
S2050001C1CE6A
S2050001C2EF48
S2050001C30036
S2050001C440F5
S2050001C50232
S2050001C6979C
S2050001C70032
S2050001C80031
S2050001C90030
S2050001CA939C
S2050001CB80AE
S2050001CCA08D
S2050001CD0626
S2050001CE6FBC
S2050001CF002A
S2050001D02009
S2050001D10C1C
S2050001D21D0A
S2050001D371B5
S2050001D4869F
S2050001D5CE56
S2050001D6EF34
S2050001D70022
S2050001D80021
S2050001D9011F
S2050001DA9788
S2050001DB001E
S2050001DC001D
S2050001DD001C
S2050001DE9388
S2050001DF809A
S2050001E060B9
S2050001E10513
S2050001E26FA8
S2050001E30016
S2050001E40015
S2050001E50B09
S2050001E60E05
S2050001E7C052
S2050001E812FF
S2050001E9C24E
S2050001EA16F9
S2050001EBC44A
S2050001EC1AF3
S2050001EDC646
S2050001EE1EED
S2050001EFC842
S2050001F02ADF
S2050001F1CA3E
S2050001F22ED9
S2050001F3CC3A
S2050001F432D3
S2050001F5CE36
S2050001F636CD
S2050001F7D032
S2050001F83AC7
S2050001F9D22E
S2050001FA3EC1
S2050001FBD42A
S2050001FC42BB
S2050001FDD626
S2050001FE46B5
S2050001FFD822
S2050002007286
S205000201DA1D
S2050002027680
S205000203DC19
S2050002047A7A
S205000205DE15
S205000206FEF4
S205000207C031
S205000208737D
S2050002092EC1
S20500020A00EE
S20500020B7B72
S20500020CF3F9
S20500020D2EBD
S20500020E10DA
S20500020F7B6E
S2050002107375
S2050002112FB8
S20500021220C6
S2050002137B6A
S205000214F2F2
S205000215C221
S205000216F6EC
S205000217C41D
S205000218FAE6
S205000219C619
S20500021A736B
S20500021B2EAF
S20500021C409C
S20500021D7B60
S20500021EF3E7
S20500021F2EAB
S2050002205088
S2050002217B5C
S2050002227363
S2050002232FA6
S2050002246074
S2050002257B58
S205000226F2E0
S205000227C809
S205000228F6DA
S205000229CA05
S20500022AFAD4
S20500022BCC01
S20500022C6765
S20500022D804B
S20500022E00CA
S20500022F00C9
S2050002304682
S2050002314E79
S205000232D6F0
S2050002334E77
S205000234665E
S2050002354F74
S205000236734F
S20500023710B1
S2050002384E72
S2050002397B44
S20500023A734B
S20500023B902D
S20500023C5E5E
S20500023D7B40
S20500023E7347
S20500023F10A9
S2050002406F49
S2050002417B3C
S20500024216A0
S2050002434E67
S205000244A60E
S2050002454E65
S205000246367C
S2050002474F62
S205000248733D
S205000249109F
S20500024A0EA0
S20500024B7B32
S20500024C7339
S20500024D901B
S20500024E1E8C
S20500024F7B2E
S2050002507335
S2050002511097
S2050002522F77
S2050002537B2A
S2050002548222
S2050002554162
S2050002561290
S205000257425F
S205000258A2FE
S205000259425D
S20500025A326C
S20500025B435A
S20500025CC2DA
S20500025D4358
S20500025E5248
S20500025F4554
S205000260E2B6
S2050002614552
S2050002627224
S205000263464F
S2050002648212
S205000265563D
S2050002661280
S205000267573A
S205000268A2EE
S2050002695738
S20500026A325C
S20500026B5835
S20500026CC2CA
S20500026D5833
S20500026E5238
S20500026F5E2B
S205000270E2A6
S2050002715E29
S2050002727214
S2050002735F26
S20500027486FE
S2050002754F34
S205000276F68C
S2050002774041
S205000278255B
S205000279611E
S20500027A730B
S20500027B007D
S20500027C205C
S20500027D304B
S20500027E82F8
S20500027F80F9
S2050002800078
S2050002810077
S2050002820076
S2050002830075
S2050002840074
S2050002850073
S2050002860072
S2050002870071
S2050002880070
S205000289006F
S20500028A006E
S20500028B006D
S20500028C006C
S20500028D006B
S20500028E006A
S20500028F0069
S2050002900167
S205000291A0C7
S2050002920165
S205000293A0C5
S205000294B7AD
S205000295174C
S2050002961052
S2050002971A47
S2050002989CC4
S205000299431C
S20500029A411D
S20500029B114C
S20500029C3E1E
S20500029DC695
S20500029E85D5
S20500029F4712
S2050002A03325
S2050002A195C2
S2050002A2A7AF
S2050002A30055
S2050002A491C3
S2050002A5C98A
S2050002A6B2A0
S2050002A7470A
S2050002A85DF3
S2050002A98DC2
S2050002AA2A24
S2050002ABC687
S2050002AC321A
S2050002AD4704
S2050002AEB793
S2050002AF1732
S2050002B01038
S2050002B11A2D
S2050002B298AE
S2050002B3C382
S2050002B44103
S2050002B50142
S2050002B682C0
S2050002B780C1
S2050002B8320E
S2050002B947F8
S2050002BA93AB
S2050002BB47F6
S2050002BCF547
S2050002BDFF3C
S2050002BEF941
S2050002BF8FAA
S2050002C03EFA
S2050002C1C671
S2050002C23204
S2050002C347EE
S2050002C4B77D
S2050002C5171C
S2050002C61022
S2050002C71A17
S2050002C89898
S2050002C9C36C
S2050002CA41ED
S2050002CB012C
S2050002CC82AA
S2050002CD80AB
S2050002CEB773
S2050002CF1712
S2050002D01018
S2050002D11A0D
S2050002D29C8A
S2050002D347DE
S2050002D441E3
S2050002D51112
S2050002D63EE4
S2050002D7C65B
S2050002D8859B
S2050002D947D8
S2050002DA33EB
S2050002DB9588
S2050002DCA775
S2050002DD001B
S2050002DE9189
S2050002DFC950
S2050002E0B266
S2050002E147D0
S2050002E25DB9
S2050002E38D88
S2050002E42AEA
S2050002E5C64D
S2050002E632E0
S2050002E747CA
S2050002E8B759
S2050002E917F8
S2050002EA10FE
S2050002EB1AF3
S2050002EC9874
S2050002EDC744
S2050002EE41C9
S2050002EF0108
S2050002F08286
S2050002F18087
S2050002F232D4
S2050002F347BE
S2050002F49371
S2050002F547BC
S2050002F6F50D
S2050002F7FF02
S2050002F8F907
S2050002F98F70
S2050002FA3EC0
S2050002FBC637
S2050002FC32CA
S2050002FD47B4
S2050002FEB743
S2050002FF17E2
S20500030010E7
S2050003011ADC
S205000302985D
S205000303C72D
S20500030441B2
S20500030501F1
S205000306826F
S2050003078070
S20500030801EE
S205000309A04E
S20500030A01EC
S20500030BA04C
S20500030C01EA
S20500030DA04A
S20500030E01E8
S20500030FA048
S20500031001E6
S205000311A046
S20500031201E4
S205000313A044
S20500031401E2
S205000315A042
S20500031601E0
S205000317A040
S20500031801DE
S205000319A03E
S20500031A419C
S20500031B11CB
S20500031C22B9
S20500031DC416
S20500031E06D3
S20500031FC612
S20500032026B1
S205000321C214
S2050003222AAB
S2050003238450
S20500032403D0
S20500032505CD
S20500032605CC
S20500032700D0
S20500032805CA
S205000329C10D
S20500032A05C8
S20500032B04C8
S20500032C814A
S20500032D4486
S20500032E3990
S20500032F28A0
S2050003300BBC
S20500033105C1
S20500033214B1
S20500033300C4
S205000334853E
S20500033504BE
S205000336655C
S205000337FDC3
S2050003382996
S2050003394579
S20500033A09B4
S20500033B2894
S20500033CB209
S20500033D407A
S20500033E2297
S20500033F4474
S2050003402691
S2050003418531
S2050003429223
S2050003434470
S2050003444172
S20500034501B1
S205000346822F
S2050003478030
S205000348812E
S205000349446A
S20500034AFDB0
S20500034BB7F5
S20500034CB7F4
S20500034D06A4
S20500034E1099
S20500034F1A8E
S2050003501394
S205000351871F
S205000352465F
S20500035301A3
S2050003541C87
S205000355435F
S205000356930E
S205000357F7A9
S2050003580798
S205000359029C
S20500035AEDB0
S20500035BDFBD
S20500035C8813
S20500035DC2D8
S20500035E8217
S20500035F8018
S2050003603760
S205000361078F
S2050003621085
S2050003631A7A
S2050003645142
S205000365078B
S2050003661C75
S205000367434D
S20500036893FC
S205000369F797
S20500036A0786
S20500036B0488
S20500036CED9E
S20500036DDFAB
S20500036E8207
S20500036F8008
S2050003700186
S205000371A0E6
S2050003724144
S2050003731173
S2050003742261
S205000375C4BE
S205000376067B
S205000377C6BA
S2050003782659
S205000379C2BC
S20500037A4A33
S20500037BC0BC
S20500037C017A
S20500037D4436
S20500037E2257
S20500037F85F3
S20500038085F2
S2050003814531
S2050003820570
S2050003830470
S2050003840172
S2050003853F33
S205000386E38E
S2050003873C34
S20500038884EB
S205000389FE70
S20500038A3736
S20500038B0963
S20500038C105B
S20500038D006A
S20500038EB7B2
S20500038F0464
S2050003901057
S2050003910066
S2050003920164
S2050003934420
S2050003942241
S20500039585DD
S20500039685DC
S205000397451B
S205000398055A
S205000399045A
S20500039A1548
S20500039B3F1D
S20500039CE378
S20500039D3C1E
S20500039E84D5
S20500039FFE5A
S2050003A01344
S2050003A10551
S2050003A2094C
S2050003A30054
S2050003A49DB6
S2050003A53F13
S2050003A60150
S2050003A7440C
S2050003A8222D
S2050003A985C9
S2050003AA81CC
S2050003AB4507
S2050003AC0546
S2050003AD0446
S2050003AE0544
S2050003AF3711
S2050003B0E364
S2050003B13C0A
S2050003B284C1
S2050003B3FE46
S2050003B41330
S2050003B585BD
S2050003B644FD
S2050003B7013F
S2050003B88DB2
S2050003B93707
S2050003BAE15C
S2050003BBBF7D
S20510000047A3
S2051000015099
S205100002499F
S2051000034F98
S20510000430B6
S2051000057E67
S20510000637AD
S20510000720C3
S205100008736F
S205100009657C
S20510000A746C
S20510000B20BF
S20510000C4896
S20510000D4994
S20510000E4795
S20510000F4893
S20510001000DA
S20510001100D9
S20510001200D8
S20510001300D7
S205100014478F
S2051000155085
S205100016498B
S2051000174F84
S20510001830A2
S2051000197E53
S20510001A3799
S20510001B20AF
S20510001C735B
S20510001D6568
S20510001E7458
S20510001F20AB
S2051000204C7E
S2051000214F7A
S2051000225771
S20510002300C7
S80400008C6F
